{
  "contractName": "MedicalRecords",
  "abi": [
    {
      "inputs": [
        {
          "internalType": "address",
          "name": "",
          "type": "address"
        },
        {
          "internalType": "uint256",
          "name": "",
          "type": "uint256"
        }
      ],
      "name": "allRecords",
      "outputs": [
        {
          "internalType": "string",
          "name": "data",
          "type": "string"
        },
        {
          "internalType": "string",
          "name": "doctorName",
          "type": "string"
        },
        {
          "internalType": "uint256",
          "name": "timestamp",
          "type": "uint256"
        }
      ],
      "stateMutability": "view",
      "type": "function",
      "constant": true
    },
    {
      "inputs": [
        {
          "internalType": "address",
          "name": "",
          "type": "address"
        }
      ],
      "name": "doctors",
      "outputs": [
        {
          "internalType": "string",
          "name": "name",
          "type": "string"
        },
        {
          "internalType": "string",
          "name": "doctorAddress",
          "type": "string"
        },
        {
          "internalType": "uint256",
          "name": "phoneNumber",
          "type": "uint256"
        },
        {
          "internalType": "uint256",
          "name": "aadharNumber",
          "type": "uint256"
        },
        {
          "internalType": "string",
          "name": "bloodGroup",
          "type": "string"
        },
        {
          "internalType": "string",
          "name": "role",
          "type": "string"
        }
      ],
      "stateMutability": "view",
      "type": "function",
      "constant": true
    },
    {
      "inputs": [
        {
          "internalType": "address",
          "name": "",
          "type": "address"
        },
        {
          "internalType": "address",
          "name": "",
          "type": "address"
        }
      ],
      "name": "hasAccess",
      "outputs": [
        {
          "internalType": "bool",
          "name": "",
          "type": "bool"
        }
      ],
      "stateMutability": "view",
      "type": "function",
      "constant": true
    },
    {
      "inputs": [
        {
          "internalType": "address",
          "name": "",
          "type": "address"
        }
      ],
      "name": "patients",
      "outputs": [
        {
          "internalType": "string",
          "name": "name",
          "type": "string"
        },
        {
          "internalType": "string",
          "name": "patientAddress",
          "type": "string"
        },
        {
          "internalType": "uint256",
          "name": "phoneNumber",
          "type": "uint256"
        },
        {
          "internalType": "uint256",
          "name": "aadharNumber",
          "type": "uint256"
        },
        {
          "internalType": "string",
          "name": "bloodGroup",
          "type": "string"
        },
        {
          "internalType": "string",
          "name": "role",
          "type": "string"
        }
      ],
      "stateMutability": "view",
      "type": "function",
      "constant": true
    },
    {
      "inputs": [
        {
          "internalType": "address",
          "name": "",
          "type": "address"
        },
        {
          "internalType": "address",
          "name": "",
          "type": "address"
        },
        {
          "internalType": "uint256",
          "name": "",
          "type": "uint256"
        }
      ],
      "name": "records",
      "outputs": [
        {
          "internalType": "string",
          "name": "data",
          "type": "string"
        },
        {
          "internalType": "string",
          "name": "doctorName",
          "type": "string"
        },
        {
          "internalType": "uint256",
          "name": "timestamp",
          "type": "uint256"
        }
      ],
      "stateMutability": "view",
      "type": "function",
      "constant": true
    },
    {
      "inputs": [
        {
          "internalType": "address",
          "name": "",
          "type": "address"
        },
        {
          "internalType": "uint256",
          "name": "",
          "type": "uint256"
        }
      ],
      "name": "validDoctors",
      "outputs": [
        {
          "internalType": "string",
          "name": "name",
          "type": "string"
        },
        {
          "internalType": "address",
          "name": "doctorAddress",
          "type": "address"
        }
      ],
      "stateMutability": "view",
      "type": "function",
      "constant": true
    },
    {
      "inputs": [
        {
          "internalType": "string",
          "name": "_name",
          "type": "string"
        },
        {
          "internalType": "string",
          "name": "_patientAddress",
          "type": "string"
        },
        {
          "internalType": "uint256",
          "name": "_phoneNumber",
          "type": "uint256"
        },
        {
          "internalType": "uint256",
          "name": "_aadharNumber",
          "type": "uint256"
        },
        {
          "internalType": "string",
          "name": "_bloodGroup",
          "type": "string"
        },
        {
          "internalType": "string",
          "name": "_role",
          "type": "string"
        }
      ],
      "name": "addPatient",
      "outputs": [],
      "stateMutability": "nonpayable",
      "type": "function"
    },
    {
      "inputs": [
        {
          "internalType": "string",
          "name": "_name",
          "type": "string"
        },
        {
          "internalType": "string",
          "name": "_doctorAddress",
          "type": "string"
        },
        {
          "internalType": "uint256",
          "name": "_phoneNumber",
          "type": "uint256"
        },
        {
          "internalType": "uint256",
          "name": "_aadharNumber",
          "type": "uint256"
        },
        {
          "internalType": "string",
          "name": "_bloodGroup",
          "type": "string"
        },
        {
          "internalType": "string",
          "name": "_role",
          "type": "string"
        }
      ],
      "name": "addDoctor",
      "outputs": [],
      "stateMutability": "nonpayable",
      "type": "function"
    },
    {
      "inputs": [
        {
          "internalType": "address",
          "name": "doctorAddress",
          "type": "address"
        }
      ],
      "name": "grantAccess",
      "outputs": [],
      "stateMutability": "nonpayable",
      "type": "function"
    },
    {
      "inputs": [
        {
          "internalType": "address",
          "name": "doctorAddress",
          "type": "address"
        }
      ],
      "name": "revokeAccess",
      "outputs": [],
      "stateMutability": "nonpayable",
      "type": "function"
    },
    {
      "inputs": [
        {
          "internalType": "address",
          "name": "userAddress",
          "type": "address"
        }
      ],
      "name": "doesUserExist",
      "outputs": [
        {
          "internalType": "bool",
          "name": "",
          "type": "bool"
        }
      ],
      "stateMutability": "view",
      "type": "function",
      "constant": true
    },
    {
      "inputs": [
        {
          "internalType": "address",
          "name": "patientAddress",
          "type": "address"
        },
        {
          "internalType": "string",
          "name": "_data",
          "type": "string"
        },
        {
          "internalType": "string",
          "name": "_doctorName",
          "type": "string"
        }
      ],
      "name": "addRecord",
      "outputs": [],
      "stateMutability": "nonpayable",
      "type": "function"
    },
    {
      "inputs": [
        {
          "internalType": "address",
          "name": "patientAddress",
          "type": "address"
        }
      ],
      "name": "getTimeStamps",
      "outputs": [
        {
          "internalType": "uint256[]",
          "name": "",
          "type": "uint256[]"
        }
      ],
      "stateMutability": "view",
      "type": "function",
      "constant": true
    },
    {
      "inputs": [
        {
          "internalType": "address",
          "name": "patientAddress",
          "type": "address"
        }
      ],
      "name": "getDoctorNames",
      "outputs": [
        {
          "internalType": "string[]",
          "name": "",
          "type": "string[]"
        }
      ],
      "stateMutability": "view",
      "type": "function",
      "constant": true
    },
    {
      "inputs": [
        {
          "internalType": "address",
          "name": "patientAddress",
          "type": "address"
        }
      ],
      "name": "getData",
      "outputs": [
        {
          "internalType": "string[]",
          "name": "",
          "type": "string[]"
        }
      ],
      "stateMutability": "view",
      "type": "function",
      "constant": true
    },
    {
      "inputs": [
        {
          "internalType": "address",
          "name": "patientAddress",
          "type": "address"
        }
      ],
      "name": "getValidDoctors",
      "outputs": [
        {
          "internalType": "string[]",
          "name": "",
          "type": "string[]"
        },
        {
          "internalType": "address[]",
          "name": "",
          "type": "address[]"
        }
      ],
      "stateMutability": "view",
      "type": "function",
      "constant": true
    }
  ],
  "bytecode": "0x608060405234801561001057600080fd5b506133a3806100206000396000f3fe608060405234801561001057600080fd5b50600436106101005760003560e01c806385e6853111610097578063b643e9f811610066578063b643e9f814610317578063d1d3396914610333578063d47b41d514610365578063ecb410541461038157610100565b806385e6853114610264578063968c5f3514610280578063a15e7137146102b2578063a9583c22146102e257610100565b806338266b22116100d357806338266b22146101b75780633ff24b06146101e75780634a09fd601461021857806377cbd7571461023457610100565b8063020910b3146101055780630869cfbc146101365780630ae5e7391461016b5780631709ef0714610187575b600080fd5b61011f600480360381019061011a9190612811565b6103b1565b60405161012d929190612d56565b60405180910390f35b610150600480360381019061014b9190612811565b610776565b60405161016296959493929190612e3f565b60405180910390f35b61018560048036038101906101809190612811565b6109d2565b005b6101a1600480360381019061019c919061283e565b610c39565b6040516101ae9190612daf565b60405180910390f35b6101d160048036038101906101cc9190612811565b610c68565b6040516101de9190612d34565b60405180910390f35b61020160048036038101906101fc919061295c565b610fb4565b60405161020f929190612dca565b60405180910390f35b610232600480360381019061022d919061299c565b61109d565b005b61024e60048036038101906102499190612811565b61122d565b60405161025b9190612d8d565b60405180910390f35b61027e60048036038101906102799190612811565b611575565b005b61029a6004803603810190610295919061287e565b611846565b6040516102a993929190612dfa565b60405180910390f35b6102cc60048036038101906102c79190612811565b6119aa565b6040516102d99190612d34565b60405180910390f35b6102fc60048036038101906102f79190612811565b611cf6565b60405161030e96959493929190612e3f565b60405180910390f35b610331600480360381019061032c919061299c565b611f52565b005b61034d6004803603810190610348919061295c565b6120e0565b60405161035c93929190612dfa565b60405180910390f35b61037f600480360381019061037a91906128d1565b612237565b005b61039b60048036038101906103969190612811565b612555565b6040516103a89190612daf565b60405180910390f35b606080600360008473ffffffffffffffffffffffffffffffffffffffff1673ffffffffffffffffffffffffffffffffffffffff16815260200190815260200160002060003373ffffffffffffffffffffffffffffffffffffffff1673ffffffffffffffffffffffffffffffffffffffff16815260200190815260200160002060009054906101000a900460ff1661047d576040517f08c379a000000000000000000000000000000000000000000000000000000000815260040161047490612edc565b60405180910390fd5b6000600560008573ffffffffffffffffffffffffffffffffffffffff1673ffffffffffffffffffffffffffffffffffffffff168152602001908152602001600020805480602002602001604051908101604052809291908181526020016000905b828210156105f8578382906000526020600020906002020160405180604001604052908160008201805461051190613108565b80601f016020809104026020016040519081016040528092919081815260200182805461053d90613108565b801561058a5780601f1061055f5761010080835404028352916020019161058a565b820191906000526020600020905b81548152906001019060200180831161056d57829003601f168201915b505050505081526020016001820160009054906101000a900473ffffffffffffffffffffffffffffffffffffffff1673ffffffffffffffffffffffffffffffffffffffff1673ffffffffffffffffffffffffffffffffffffffff1681525050815260200190600101906104de565b5050505090506000815167ffffffffffffffff81111561061b5761061a613270565b5b60405190808252806020026020018201604052801561064e57816020015b60608152602001906001900390816106395790505b5090506000825167ffffffffffffffff81111561066e5761066d613270565b5b60405190808252806020026020018201604052801561069c5781602001602082028036833780820191505090505b50905060005b8351811015610767578381815181106106be576106bd613241565b5b6020026020010151600001518382815181106106dd576106dc613241565b5b60200260200101819052508381815181106106fb576106fa613241565b5b60200260200101516020015182828151811061071a57610719613241565b5b602002602001019073ffffffffffffffffffffffffffffffffffffffff16908173ffffffffffffffffffffffffffffffffffffffff1681525050808061075f9061316b565b9150506106a2565b50818194509450505050915091565b600060205280600052604060002060009150905080600001805461079990613108565b80601f01602080910402602001604051908101604052809291908181526020018280546107c590613108565b80156108125780601f106107e757610100808354040283529160200191610812565b820191906000526020600020905b8154815290600101906020018083116107f557829003601f168201915b50505050509080600101805461082790613108565b80601f016020809104026020016040519081016040528092919081815260200182805461085390613108565b80156108a05780601f10610875576101008083540402835291602001916108a0565b820191906000526020600020905b81548152906001019060200180831161088357829003601f168201915b5050505050908060020154908060030154908060040180546108c190613108565b80601f01602080910402602001604051908101604052809291908181526020018280546108ed90613108565b801561093a5780601f1061090f5761010080835404028352916020019161093a565b820191906000526020600020905b81548152906001019060200180831161091d57829003601f168201915b50505050509080600501805461094f90613108565b80601f016020809104026020016040519081016040528092919081815260200182805461097b90613108565b80156109c85780601f1061099d576101008083540402835291602001916109c8565b820191906000526020600020905b8154815290600101906020018083116109ab57829003601f168201915b5050505050905086565b6001600360003373ffffffffffffffffffffffffffffffffffffffff1673ffffffffffffffffffffffffffffffffffffffff16815260200190815260200160002060008373ffffffffffffffffffffffffffffffffffffffff1673ffffffffffffffffffffffffffffffffffffffff16815260200190815260200160002060006101000a81548160ff0219169083151502179055506000600160008373ffffffffffffffffffffffffffffffffffffffff1673ffffffffffffffffffffffffffffffffffffffff1681526020019081526020016000206000018054610ab690613108565b80601f0160208091040260200160405190810160405280929190818152602001828054610ae290613108565b8015610b2f5780601f10610b0457610100808354040283529160200191610b2f565b820191906000526020600020905b815481529060010190602001808311610b1257829003601f168201915b50505050509050600060405180604001604052808381526020018473ffffffffffffffffffffffffffffffffffffffff168152509050600560003373ffffffffffffffffffffffffffffffffffffffff1673ffffffffffffffffffffffffffffffffffffffff1681526020019081526020016000208190806001815401808255809150506001900390600052602060002090600202016000909190919091506000820151816000019080519060200190610bea929190612607565b5060208201518160010160006101000a81548173ffffffffffffffffffffffffffffffffffffffff021916908373ffffffffffffffffffffffffffffffffffffffff1602179055505050505050565b60036020528160005260406000206020528060005260406000206000915091509054906101000a900460ff1681565b6060600360008373ffffffffffffffffffffffffffffffffffffffff1673ffffffffffffffffffffffffffffffffffffffff16815260200190815260200160002060003373ffffffffffffffffffffffffffffffffffffffff1673ffffffffffffffffffffffffffffffffffffffff16815260200190815260200160002060009054906101000a900460ff16610d33576040517f08c379a0000000000000000000000000000000000000000000000000000000008152600401610d2a90612edc565b60405180910390fd5b6000600460008473ffffffffffffffffffffffffffffffffffffffff1673ffffffffffffffffffffffffffffffffffffffff168152602001908152602001600020805480602002602001604051908101604052809291908181526020016000905b82821015610ef45783829060005260206000209060030201604051806060016040529081600082018054610dc790613108565b80601f0160208091040260200160405190810160405280929190818152602001828054610df390613108565b8015610e405780601f10610e1557610100808354040283529160200191610e40565b820191906000526020600020905b815481529060010190602001808311610e2357829003601f168201915b50505050508152602001600182018054610e5990613108565b80601f0160208091040260200160405190810160405280929190818152602001828054610e8590613108565b8015610ed25780601f10610ea757610100808354040283529160200191610ed2565b820191906000526020600020905b815481529060010190602001808311610eb557829003601f168201915b5050505050815260200160028201548152505081526020019060010190610d94565b5050505090506000815167ffffffffffffffff811115610f1757610f16613270565b5b604051908082528060200260200182016040528015610f4a57816020015b6060815260200190600190039081610f355790505b50905060005b8251811015610fa957828181518110610f6c57610f6b613241565b5b602002602001015160000151828281518110610f8b57610f8a613241565b5b60200260200101819052508080610fa19061316b565b915050610f50565b508092505050919050565b60056020528160005260406000208181548110610fd057600080fd5b906000526020600020906002020160009150915050806000018054610ff490613108565b80601f016020809104026020016040519081016040528092919081815260200182805461102090613108565b801561106d5780601f106110425761010080835404028352916020019161106d565b820191906000526020600020905b81548152906001019060200180831161105057829003601f168201915b5050505050908060010160009054906101000a900473ffffffffffffffffffffffffffffffffffffffff16905082565b6000600160003373ffffffffffffffffffffffffffffffffffffffff1673ffffffffffffffffffffffffffffffffffffffff16815260200190815260200160002060000180546110ec90613108565b90501461112e576040517f08c379a000000000000000000000000000000000000000000000000000000000815260040161112590612efc565b60405180910390fd5b6040518060c0016040528087815260200186815260200185815260200184815260200183815260200182815250600160003373ffffffffffffffffffffffffffffffffffffffff1673ffffffffffffffffffffffffffffffffffffffff16815260200190815260200160002060008201518160000190805190602001906111b6929190612607565b5060208201518160010190805190602001906111d3929190612607565b5060408201518160020155606082015181600301556080820151816004019080519060200190611204929190612607565b5060a0820151816005019080519060200190611221929190612607565b50905050505050505050565b6060600360008373ffffffffffffffffffffffffffffffffffffffff1673ffffffffffffffffffffffffffffffffffffffff16815260200190815260200160002060003373ffffffffffffffffffffffffffffffffffffffff1673ffffffffffffffffffffffffffffffffffffffff16815260200190815260200160002060009054906101000a900460ff166112f8576040517f08c379a00000000000000000000000000000000000000000000000000000000081526004016112ef90612edc565b60405180910390fd5b6000600460008473ffffffffffffffffffffffffffffffffffffffff1673ffffffffffffffffffffffffffffffffffffffff168152602001908152602001600020805480602002602001604051908101604052809291908181526020016000905b828210156114b9578382906000526020600020906003020160405180606001604052908160008201805461138c90613108565b80601f01602080910402602001604051908101604052809291908181526020018280546113b890613108565b80156114055780601f106113da57610100808354040283529160200191611405565b820191906000526020600020905b8154815290600101906020018083116113e857829003601f168201915b5050505050815260200160018201805461141e90613108565b80601f016020809104026020016040519081016040528092919081815260200182805461144a90613108565b80156114975780601f1061146c57610100808354040283529160200191611497565b820191906000526020600020905b81548152906001019060200180831161147a57829003601f168201915b5050505050815260200160028201548152505081526020019060010190611359565b5050505090506000815167ffffffffffffffff8111156114dc576114db613270565b5b60405190808252806020026020018201604052801561150a5781602001602082028036833780820191505090505b50905060005b825181101561156a5782818151811061152c5761152b613241565b5b60200260200101516040015182828151811061154b5761154a613241565b5b60200260200101818152505080806115629061316b565b915050611510565b508092505050919050565b6000600360003373ffffffffffffffffffffffffffffffffffffffff1673ffffffffffffffffffffffffffffffffffffffff16815260200190815260200160002060008373ffffffffffffffffffffffffffffffffffffffff1673ffffffffffffffffffffffffffffffffffffffff16815260200190815260200160002060006101000a81548160ff0219169083151502179055506000600560003373ffffffffffffffffffffffffffffffffffffffff1673ffffffffffffffffffffffffffffffffffffffff168152602001908152602001600020905060005b8180549050811015611841578273ffffffffffffffffffffffffffffffffffffffff1682828154811061168657611685613241565b5b906000526020600020906002020160010160009054906101000a900473ffffffffffffffffffffffffffffffffffffffff1673ffffffffffffffffffffffffffffffffffffffff16141561182e57600182805490506116e5919061304a565b81146117c85781600183805490506116fd919061304a565b8154811061170e5761170d613241565b5b906000526020600020906002020182828154811061172f5761172e613241565b5b9060005260206000209060020201600082018160000190805461175190613108565b61175c92919061268d565b506001820160009054906101000a900473ffffffffffffffffffffffffffffffffffffffff168160010160006101000a81548173ffffffffffffffffffffffffffffffffffffffff021916908373ffffffffffffffffffffffffffffffffffffffff1602179055509050505b818054806117d9576117d8613212565b5b6001900381819060005260206000209060020201600080820160006117fe919061271a565b6001820160006101000a81549073ffffffffffffffffffffffffffffffffffffffff021916905550509055611841565b80806118399061316b565b915050611650565b505050565b6002602052826000526040600020602052816000526040600020818154811061186e57600080fd5b9060005260206000209060030201600092509250505080600001805461189390613108565b80601f01602080910402602001604051908101604052809291908181526020018280546118bf90613108565b801561190c5780601f106118e15761010080835404028352916020019161190c565b820191906000526020600020905b8154815290600101906020018083116118ef57829003601f168201915b50505050509080600101805461192190613108565b80601f016020809104026020016040519081016040528092919081815260200182805461194d90613108565b801561199a5780601f1061196f5761010080835404028352916020019161199a565b820191906000526020600020905b81548152906001019060200180831161197d57829003601f168201915b5050505050908060020154905083565b6060600360008373ffffffffffffffffffffffffffffffffffffffff1673ffffffffffffffffffffffffffffffffffffffff16815260200190815260200160002060003373ffffffffffffffffffffffffffffffffffffffff1673ffffffffffffffffffffffffffffffffffffffff16815260200190815260200160002060009054906101000a900460ff16611a75576040517f08c379a0000000000000000000000000000000000000000000000000000000008152600401611a6c90612edc565b60405180910390fd5b6000600460008473ffffffffffffffffffffffffffffffffffffffff1673ffffffffffffffffffffffffffffffffffffffff168152602001908152602001600020805480602002602001604051908101604052809291908181526020016000905b82821015611c365783829060005260206000209060030201604051806060016040529081600082018054611b0990613108565b80601f0160208091040260200160405190810160405280929190818152602001828054611b3590613108565b8015611b825780601f10611b5757610100808354040283529160200191611b82565b820191906000526020600020905b815481529060010190602001808311611b6557829003601f168201915b50505050508152602001600182018054611b9b90613108565b80601f0160208091040260200160405190810160405280929190818152602001828054611bc790613108565b8015611c145780601f10611be957610100808354040283529160200191611c14565b820191906000526020600020905b815481529060010190602001808311611bf757829003601f168201915b5050505050815260200160028201548152505081526020019060010190611ad6565b5050505090506000815167ffffffffffffffff811115611c5957611c58613270565b5b604051908082528060200260200182016040528015611c8c57816020015b6060815260200190600190039081611c775790505b50905060005b8251811015611ceb57828181518110611cae57611cad613241565b5b602002602001015160200151828281518110611ccd57611ccc613241565b5b60200260200101819052508080611ce39061316b565b915050611c92565b508092505050919050565b6001602052806000526040600020600091509050806000018054611d1990613108565b80601f0160208091040260200160405190810160405280929190818152602001828054611d4590613108565b8015611d925780601f10611d6757610100808354040283529160200191611d92565b820191906000526020600020905b815481529060010190602001808311611d7557829003601f168201915b505050505090806001018054611da790613108565b80601f0160208091040260200160405190810160405280929190818152602001828054611dd390613108565b8015611e205780601f10611df557610100808354040283529160200191611e20565b820191906000526020600020905b815481529060010190602001808311611e0357829003601f168201915b505050505090806002015490806003015490806004018054611e4190613108565b80601f0160208091040260200160405190810160405280929190818152602001828054611e6d90613108565b8015611eba5780601f10611e8f57610100808354040283529160200191611eba565b820191906000526020600020905b815481529060010190602001808311611e9d57829003601f168201915b505050505090806005018054611ecf90613108565b80601f0160208091040260200160405190810160405280929190818152602001828054611efb90613108565b8015611f485780601f10611f1d57610100808354040283529160200191611f48565b820191906000526020600020905b815481529060010190602001808311611f2b57829003601f168201915b5050505050905086565b60008060003373ffffffffffffffffffffffffffffffffffffffff1673ffffffffffffffffffffffffffffffffffffffff1681526020019081526020016000206000018054611fa090613108565b905014611fe2576040517f08c379a0000000000000000000000000000000000000000000000000000000008152600401611fd990612ebc565b60405180910390fd5b6040518060c00160405280878152602001868152602001858152602001848152602001838152602001828152506000803373ffffffffffffffffffffffffffffffffffffffff1673ffffffffffffffffffffffffffffffffffffffff1681526020019081526020016000206000820151816000019080519060200190612069929190612607565b506020820151816001019080519060200190612086929190612607565b50604082015181600201556060820151816003015560808201518160040190805190602001906120b7929190612607565b5060a08201518160050190805190602001906120d4929190612607565b50905050505050505050565b600460205281600052604060002081815481106120fc57600080fd5b90600052602060002090600302016000915091505080600001805461212090613108565b80601f016020809104026020016040519081016040528092919081815260200182805461214c90613108565b80156121995780601f1061216e57610100808354040283529160200191612199565b820191906000526020600020905b81548152906001019060200180831161217c57829003601f168201915b5050505050908060010180546121ae90613108565b80601f01602080910402602001604051908101604052809291908181526020018280546121da90613108565b80156122275780601f106121fc57610100808354040283529160200191612227565b820191906000526020600020905b81548152906001019060200180831161220a57829003601f168201915b5050505050908060020154905083565b600360008473ffffffffffffffffffffffffffffffffffffffff1673ffffffffffffffffffffffffffffffffffffffff16815260200190815260200160002060003373ffffffffffffffffffffffffffffffffffffffff1673ffffffffffffffffffffffffffffffffffffffff16815260200190815260200160002060009054906101000a900460ff16612300576040517f08c379a00000000000000000000000000000000000000000000000000000000081526004016122f790612edc565b60405180910390fd5b60006040518060600160405280848152602001838152602001428152509050600260008573ffffffffffffffffffffffffffffffffffffffff1673ffffffffffffffffffffffffffffffffffffffff16815260200190815260200160002060003373ffffffffffffffffffffffffffffffffffffffff1673ffffffffffffffffffffffffffffffffffffffff16815260200190815260200160002081908060018154018082558091505060019003906000526020600020906003020160009091909190915060008201518160000190805190602001906123e1929190612607565b5060208201518160010190805190602001906123fe929190612607565b50604082015181600201555050600460008573ffffffffffffffffffffffffffffffffffffffff1673ffffffffffffffffffffffffffffffffffffffff1681526020019081526020016000208190806001815401808255809150506001900390600052602060002090600302016000909190919091506000820151816000019080519060200190612490929190612607565b5060208201518160010190805190602001906124ad929190612607565b506040820151816002015550506001600360008673ffffffffffffffffffffffffffffffffffffffff1673ffffffffffffffffffffffffffffffffffffffff16815260200190815260200160002060008673ffffffffffffffffffffffffffffffffffffffff1673ffffffffffffffffffffffffffffffffffffffff16815260200190815260200160002060006101000a81548160ff02191690831515021790555050505050565b6000806000808473ffffffffffffffffffffffffffffffffffffffff1673ffffffffffffffffffffffffffffffffffffffff16815260200190815260200160002060000180546125a490613108565b9050118061260057506000600160008473ffffffffffffffffffffffffffffffffffffffff1673ffffffffffffffffffffffffffffffffffffffff16815260200190815260200160002060000180546125fc90613108565b9050115b9050919050565b82805461261390613108565b90600052602060002090601f016020900481019282612635576000855561267c565b82601f1061264e57805160ff191683800117855561267c565b8280016001018555821561267c579182015b8281111561267b578251825591602001919060010190612660565b5b509050612689919061275a565b5090565b82805461269990613108565b90600052602060002090601f0160209004810192826126bb5760008555612709565b82601f106126cc5780548555612709565b8280016001018555821561270957600052602060002091601f016020900482015b828111156127085782548255916001019190600101906126ed565b5b509050612716919061275a565b5090565b50805461272690613108565b6000825580601f106127385750612757565b601f016020900490600052602060002090810190612756919061275a565b5b50565b5b8082111561277357600081600090555060010161275b565b5090565b600061278a61278584612f41565b612f1c565b9050828152602081018484840111156127a6576127a56132a4565b5b6127b18482856130c6565b509392505050565b6000813590506127c88161333f565b92915050565b600082601f8301126127e3576127e261329f565b5b81356127f3848260208601612777565b91505092915050565b60008135905061280b81613356565b92915050565b600060208284031215612827576128266132ae565b5b6000612835848285016127b9565b91505092915050565b60008060408385031215612855576128546132ae565b5b6000612863858286016127b9565b9250506020612874858286016127b9565b9150509250929050565b600080600060608486031215612897576128966132ae565b5b60006128a5868287016127b9565b93505060206128b6868287016127b9565b92505060406128c7868287016127fc565b9150509250925092565b6000806000606084860312156128ea576128e96132ae565b5b60006128f8868287016127b9565b935050602084013567ffffffffffffffff811115612919576129186132a9565b5b612925868287016127ce565b925050604084013567ffffffffffffffff811115612946576129456132a9565b5b612952868287016127ce565b9150509250925092565b60008060408385031215612973576129726132ae565b5b6000612981858286016127b9565b9250506020612992858286016127fc565b9150509250929050565b60008060008060008060c087890312156129b9576129b86132ae565b5b600087013567ffffffffffffffff8111156129d7576129d66132a9565b5b6129e389828a016127ce565b965050602087013567ffffffffffffffff811115612a0457612a036132a9565b5b612a1089828a016127ce565b9550506040612a2189828a016127fc565b9450506060612a3289828a016127fc565b935050608087013567ffffffffffffffff811115612a5357612a526132a9565b5b612a5f89828a016127ce565b92505060a087013567ffffffffffffffff811115612a8057612a7f6132a9565b5b612a8c89828a016127ce565b9150509295509295509295565b6000612aa58383612add565b60208301905092915050565b6000612abd8383612c3b565b905092915050565b6000612ad18383612d16565b60208301905092915050565b612ae68161307e565b82525050565b612af58161307e565b82525050565b6000612b0682612fa2565b612b108185612ff5565b9350612b1b83612f72565b8060005b83811015612b4c578151612b338882612a99565b9750612b3e83612fce565b925050600181019050612b1f565b5085935050505092915050565b6000612b6482612fad565b612b6e8185613006565b935083602082028501612b8085612f82565b8060005b85811015612bbc5784840389528151612b9d8582612ab1565b9450612ba883612fdb565b925060208a01995050600181019050612b84565b50829750879550505050505092915050565b6000612bd982612fb8565b612be38185613017565b9350612bee83612f92565b8060005b83811015612c1f578151612c068882612ac5565b9750612c1183612fe8565b925050600181019050612bf2565b5085935050505092915050565b612c3581613090565b82525050565b6000612c4682612fc3565b612c508185613028565b9350612c608185602086016130d5565b612c69816132b3565b840191505092915050565b6000612c7f82612fc3565b612c898185613039565b9350612c998185602086016130d5565b612ca2816132b3565b840191505092915050565b6000612cba601a83613039565b9150612cc5826132c4565b602082019050919050565b6000612cdd601b83613039565b9150612ce8826132ed565b602082019050919050565b6000612d00601983613039565b9150612d0b82613316565b602082019050919050565b612d1f816130bc565b82525050565b612d2e816130bc565b82525050565b60006020820190508181036000830152612d4e8184612b59565b905092915050565b60006040820190508181036000830152612d708185612b59565b90508181036020830152612d848184612afb565b90509392505050565b60006020820190508181036000830152612da78184612bce565b905092915050565b6000602082019050612dc46000830184612c2c565b92915050565b60006040820190508181036000830152612de48185612c74565b9050612df36020830184612aec565b9392505050565b60006060820190508181036000830152612e148186612c74565b90508181036020830152612e288185612c74565b9050612e376040830184612d25565b949350505050565b600060c0820190508181036000830152612e598189612c74565b90508181036020830152612e6d8188612c74565b9050612e7c6040830187612d25565b612e896060830186612d25565b8181036080830152612e9b8185612c74565b905081810360a0830152612eaf8184612c74565b9050979650505050505050565b60006020820190508181036000830152612ed581612cad565b9050919050565b60006020820190508181036000830152612ef581612cd0565b9050919050565b60006020820190508181036000830152612f1581612cf3565b9050919050565b6000612f26612f37565b9050612f32828261313a565b919050565b6000604051905090565b600067ffffffffffffffff821115612f5c57612f5b613270565b5b612f65826132b3565b9050602081019050919050565b6000819050602082019050919050565b6000819050602082019050919050565b6000819050602082019050919050565b600081519050919050565b600081519050919050565b600081519050919050565b600081519050919050565b6000602082019050919050565b6000602082019050919050565b6000602082019050919050565b600082825260208201905092915050565b600082825260208201905092915050565b600082825260208201905092915050565b600082825260208201905092915050565b600082825260208201905092915050565b6000613055826130bc565b9150613060836130bc565b925082821015613073576130726131b4565b5b828203905092915050565b60006130898261309c565b9050919050565b60008115159050919050565b600073ffffffffffffffffffffffffffffffffffffffff82169050919050565b6000819050919050565b82818337600083830152505050565b60005b838110156130f35780820151818401526020810190506130d8565b83811115613102576000848401525b50505050565b6000600282049050600182168061312057607f821691505b60208210811415613134576131336131e3565b5b50919050565b613143826132b3565b810181811067ffffffffffffffff8211171561316257613161613270565b5b80604052505050565b6000613176826130bc565b91507fffffffffffffffffffffffffffffffffffffffffffffffffffffffffffffffff8214156131a9576131a86131b4565b5b600182019050919050565b7f4e487b7100000000000000000000000000000000000000000000000000000000600052601160045260246000fd5b7f4e487b7100000000000000000000000000000000000000000000000000000000600052602260045260246000fd5b7f4e487b7100000000000000000000000000000000000000000000000000000000600052603160045260246000fd5b7f4e487b7100000000000000000000000000000000000000000000000000000000600052603260045260246000fd5b7f4e487b7100000000000000000000000000000000000000000000000000000000600052604160045260246000fd5b600080fd5b600080fd5b600080fd5b600080fd5b6000601f19601f8301169050919050565b7f50617469656e7420616c72656164792072656769737465726564000000000000600082015250565b7f446f63746f7220646f6573206e6f742068617665206163636573730000000000600082015250565b7f446f63746f7220616c7265616479207265676973746572656400000000000000600082015250565b6133488161307e565b811461335357600080fd5b50565b61335f816130bc565b811461336a57600080fd5b5056fea2646970667358221220b2a988afbc6e2cdb589ad668fe7c78cfdb96d4ca0061a8ba255c8eed7cb8b48c64736f6c63430008060033",
  "immutableReferences": {},
  "source": "// SPDX-License-Identifier: MIT\r\npragma solidity ^0.8.6;\r\n\r\ncontract MedicalRecords {\r\n    struct Patient {\r\n        string name;\r\n        string patientAddress;\r\n        uint256 phoneNumber;\r\n        uint256 aadharNumber;\r\n        string bloodGroup;\r\n        string role; // Added role field\r\n    }\r\n\r\n    struct Doctor {\r\n        string name;\r\n        string doctorAddress;\r\n        uint256 phoneNumber;\r\n        uint256 aadharNumber;\r\n        string bloodGroup;\r\n        string role; // Added role field\r\n    }\r\n\r\n    struct Record {\r\n        string data;\r\n        string doctorName;\r\n        uint256 timestamp;\r\n    }\r\n\r\n    struct ValidDoctor {\r\n        string name;\r\n        address doctorAddress;\r\n    }\r\n\r\n    mapping(address => Patient) public patients;\r\n    mapping(address => Doctor) public doctors;\r\n    mapping(address => mapping(address => Record[])) public records;\r\n    mapping(address => mapping(address => bool)) public hasAccess;\r\n    mapping(address => Record[]) public allRecords;\r\n    mapping(address => ValidDoctor[]) public validDoctors; // List of valid doctors for each patient\r\n\r\n    function addPatient(string memory _name, string memory _patientAddress, uint256 _phoneNumber, uint256 _aadharNumber, string memory _bloodGroup, string memory _role) public {\r\n        require(bytes(patients[msg.sender].name).length == 0, \"Patient already registered\");\r\n        patients[msg.sender] = Patient(_name, _patientAddress, _phoneNumber, _aadharNumber, _bloodGroup, _role);\r\n    }\r\n\r\n    function addDoctor(string memory _name, string memory _doctorAddress, uint256 _phoneNumber, uint256 _aadharNumber, string memory _bloodGroup, string memory _role) public {\r\n        require(bytes(doctors[msg.sender].name).length == 0, \"Doctor already registered\");\r\n        doctors[msg.sender] = Doctor(_name, _doctorAddress, _phoneNumber, _aadharNumber, _bloodGroup, _role);\r\n    }\r\n\r\n    function grantAccess(address doctorAddress) public {\r\n        hasAccess[msg.sender][doctorAddress] = true;\r\n        string memory doctorName = doctors[doctorAddress].name;\r\n        ValidDoctor memory newDoctor = ValidDoctor(doctorName, doctorAddress);\r\n        validDoctors[msg.sender].push(newDoctor);\r\n    }\r\n\r\n    function revokeAccess(address doctorAddress) public {\r\n        // require(hasAccess[msg.sender][doctorAddress], \"Doctor does not have access\");\r\n        hasAccess[msg.sender][doctorAddress] = false;\r\n        \r\n        ValidDoctor[] storage patientDoctors = validDoctors[msg.sender];\r\n        for (uint256 i = 0; i < patientDoctors.length; i++) {\r\n            if (patientDoctors[i].doctorAddress == doctorAddress) {\r\n                // Remove the doctor from the list\r\n                if (i != patientDoctors.length - 1) {\r\n                    patientDoctors[i] = patientDoctors[patientDoctors.length - 1];\r\n                }\r\n                patientDoctors.pop();\r\n                break;\r\n            }\r\n        }\r\n    }\r\n    \r\n    function doesUserExist(address userAddress) public view returns (bool) {\r\n        return bytes(patients[userAddress].name).length > 0 || bytes(doctors[userAddress].name).length > 0;\r\n    }\r\n\r\n    function addRecord(address patientAddress, string memory _data, string memory _doctorName) public {\r\n        require(hasAccess[patientAddress][msg.sender], \"Doctor does not have access\");\r\n        Record memory newRecord = Record(_data, _doctorName, block.timestamp);\r\n        records[patientAddress][msg.sender].push(newRecord);\r\n        allRecords[patientAddress].push(newRecord);\r\n        hasAccess[patientAddress][patientAddress] = true;\r\n    }\r\n\r\n    function getTimeStamps(address patientAddress) public view returns (uint256[] memory) {\r\n        require(hasAccess[patientAddress][msg.sender], \"Doctor does not have access\");\r\n\r\n        Record[] memory patientRecords = allRecords[patientAddress];\r\n        uint256[] memory timestamps = new uint256[](patientRecords.length);\r\n\r\n        for (uint256 i = 0; i < patientRecords.length; i++) {\r\n            timestamps[i] = patientRecords[i].timestamp;\r\n        }\r\n\r\n        return timestamps;\r\n    }\r\n\r\n    function getDoctorNames(address patientAddress) public view returns (string[] memory) {\r\n        require(hasAccess[patientAddress][msg.sender], \"Doctor does not have access\");\r\n        Record[] memory patientRecords = allRecords[patientAddress];\r\n        string[] memory doctorNames = new string[](patientRecords.length);\r\n\r\n        for (uint256 i = 0; i < patientRecords.length; i++) {\r\n            doctorNames[i] = patientRecords[i].doctorName;\r\n        }\r\n        return doctorNames;\r\n    }\r\n\r\n    function getData(address patientAddress) public view returns (string[] memory) {\r\n        require(hasAccess[patientAddress][msg.sender], \"Doctor does not have access\");\r\n        Record[] memory patientRecords = allRecords[patientAddress];\r\n        string[] memory datas = new string[](patientRecords.length);\r\n\r\n        for (uint256 i = 0; i < patientRecords.length; i++) {\r\n            datas[i] = patientRecords[i].data;\r\n        }\r\n        return datas;\r\n    }\r\n\r\n    function getValidDoctors(address patientAddress) public view returns (string[] memory, address[] memory) {\r\n        require(hasAccess[patientAddress][msg.sender], \"Doctor does not have access\");\r\n        ValidDoctor[] memory patientDoctors = validDoctors[patientAddress];\r\n        string[] memory doctorNames = new string[](patientDoctors.length);\r\n        address[] memory doctorAddresses = new address[](patientDoctors.length);\r\n\r\n        for (uint256 i = 0; i < patientDoctors.length; i++) {\r\n            doctorNames[i] = patientDoctors[i].name;\r\n            doctorAddresses[i] = patientDoctors[i].doctorAddress;\r\n        }\r\n        return (doctorNames, doctorAddresses);\r\n    }\r\n\r\n}\r\n",
  "sourcePath": "/Users/shraiyashpandey/Downloads/MedBuddy_3.0/contracts/MedicalRecords.sol",
  "compiler": {
    "name": "solc",
    "version": "0.8.6+commit.11564f7e.Emscripten.clang"
  },
  "schemaVersion": "3.4.16",
  "updatedAt": "2024-04-18T08:24:30.152Z",
  "networkType": "ethereum",
  "devdoc": {
    "kind": "dev",
    "methods": {},
    "version": 1
  },
  "userdoc": {
    "kind": "user",
    "methods": {},
    "version": 1
  }
}